MXLFGO000239        0LF  BONDESF250619 0  202404232024042311 BNOBRA    0    1     4328140           0      110100           10060685478          1000000       43544055245                 0                 0                 0                 0                 0                 0             0                 0                 0                 0       43544055245PEIS85                    0                 0                 0                 0                 0                 0            9977660478      830250GOB FEDGOBIERNO FEDERAL                         00712037009                 00         0                 0                 021          0                 0                 0                 0                 0                 0                 0                 0                 0                    10 0             0 1    10
MXLFGO0002S2        0LF  BONDESF250313 0  202404232024042311 BNOBRA    0    1    10000000           0      110100           10020593546          1000000      100205935460                 0                 0                 0                 0                 0                 0             0                 0                 0                 0      100205935460PEIS85                    0                 0                 0                 0                 0                 0            9983860246      367333GOB FEDGOBIERNO FEDERAL                         00712037009                 00         0                 0                 021          0                 0                 0                 0                 0                 0                 0                 0                 0                    10 0             0 1    10
MXLFGO0000B2        0LF  BONDESF261203 0  202404232024042311INVEXBA    0    1     4771861           0      110200           10042202696          1000000       47919995399                 0                 0                 0                 0                 0                 0             0                 0                 0                 0       47919995399PEIS85                    0                 0                 0                 0                 0                 0            9959177696      830250GOB FEDGOBIERNO FEDERAL                         00712040059                 00         0                 0                 0299         0                 0                 0                 0                 0                 0                 0                 0                 0                 GFI10 0             0 1    10
MXIQBP0701N1        0IQ  BPAG91 270909 0  202404232024042311 AFIRME    0    1     7922623           0      110100           10079994790          1000000       79859998563                 0                 0                 0                 0                 0                 0             0                 0                 0                 0       79859998563PEIS85                    0                 0                 0                 0                 0                 0            9954994790     1250000GOB FEDGOBIERNO FEDERAL                         00714040062                 00         0                 0                 022          0                 0                 0                 0                 0                 0                 0                 0                 0                    10 0             0 1    10
MXIQBP0701E0        0IQ  BPAG91 240829 0  202404232024042311CBBANOR    0    1     4208661           0      109900           10166866200          1000000       42788893268                 0                 0                 0                 0                 0                 0             0                 0                 0                 0       42788893268PEIS85                    0                 0                 0                 0                 0                 0            9997816200     1690500GOB FEDGOBIERNO FEDERAL                         00715013027                 00         0                 0                 022          0                 0                 0                 0                 0                 0                 0                 0                 0                    10 0             0 1    10
MXLFGO0002L7        0LF  BONDESF271014 0  202404232024042311CB INTE    0    1     3211030           0      110000            9950075523          1000000       31949991007                 0                 0                 0                 0                 0                 0             0                 0                 0                 0       31949991007PEIS85                    0                 0                 0                 0                 0                 0            9891861623      582139GOB FEDGOBIERNO FEDERAL                         00716013124                 00         0                 0                 022          0                 0                 0                 0                 0                 0                 0                 0                 0                    10 0             0 1    10
MXISBP0401C7        0IS  BPA182 260219 0  202404232024042311BANCOME    0    1     4696607           0      110000           10203109673          1000000       47919996312                 0                 0                 0                 0                 0                 0             0                 0                 0                 0       47919996312PEIS85                    0                 0                 0                 0                 0                 0           10011129073     1919806GOB FEDGOBIERNO FEDERAL                         00717037006                 00         0                 0                 022          0                 0                 0                 0                 0                 0                 0                 0                 0                    10 0             0 1    10
MX01R0000006        01   R      A      0  202404232024042503CB JP M    0    0        8000           0           0           15328000000          1000000         122624000                 0                 0                 0                 0                 0                 0        060000             73574             11772                 0         122709346PEIS85                    0                 0                 0                 0                 0                 0           15328000000           0REGIONAREGIONAL SAB DE CV                       01223013109                 20         0                 0                 0299         0                 0                 0                 0                 0                 0                 0                 0                 0                 BBG20 0             0 1    10
MXCFTE0B0005        0CF  TERRA  13     0  202404232024042503CB MORG    0    0       20000           0           0            4230000000          1000000          84600000                 0                 0                 0                 0                 0                 0        060000             50760              8122                 0          84658882PEIS85                    0                 0                 0                 0                 0                 0            4230000000           0TERRA  TF ADMINISTRADORA S DE RL DE CV          01405013114                 20         0                 0                 010          0                 0                 0                 0                 0                 0                 0                 0                 0                    20 0             0 1    10
