MXLDGO0004K0        0LD  BONDESD250814 0  202404232024042311 BNOBRA    0    1     1996214           0      110100           10048484404          1000000       20058925246                 0                 0                 0                 0                 0                 0             0                 0                 0                 0       20058925246PEISFI                    0                 0                 0                 0                 0                 0            9965309404      831750GOB FEDGOBIERNO FEDERAL                         00712037009                 00         0                 0                 021          0                 0                 0                 0                 0                 0                 0                 0                 0                    10 0             0 1    10
MXLFGO000239        0LF  BONDESF250619 0  202404232024042311 BNOBRA    0    1     4037605           0      110100           10060685478          1000000       40621073989                 0                 0                 0                 0                 0                 0             0                 0                 0                 0       40621073989PEISFI                    0                 0                 0                 0                 0                 0            9977660478      830250GOB FEDGOBIERNO FEDERAL                         00712037009                 00         0                 0                 021          0                 0                 0                 0                 0                 0                 0                 0                 0                    10 0             0 1    10
MXLFGO0000B2        0LF  BONDESF261203 0  202404232024042311INVEXBA    0    1      685329           0      110200           10042202695          1000000        6882212731                 0                 0                 0                 0                 0                 0             0                 0                 0                 0        6882212731PEISFI                    0                 0                 0                 0                 0                 0            9959177696      830250GOB FEDGOBIERNO FEDERAL                         00712040059                 00         0                 0                 0299         0                 0                 0                 0                 0                 0                 0                 0                 0                 GFI10 0             0 1    10
MXLFGO0000F3        0LF  BONDESF261231 0  202404232024042311INVEXBA    0    1     1329305           0      110200           10041176895          1000000       13347786652                 0                 0                 0                 0                 0                 0             0                 0                 0                 0       13347786652PEISFI                    0                 0                 0                 0                 0                 0            9958151895      830250GOB FEDGOBIERNO FEDERAL                         00712040059                 00         0                 0                 0299         0                 0                 0                 0                 0                 0                 0                 0                 0                 GFI10 0             0 1    10
MXIQBP0701H3        0IQ  BPAG91 250904 0  202404232024042311 AFIRME    0    1     3327391           0      110100           10131058015          1000000       33709991260                 0                 0                 0                 0                 0                 0             0                 0                 0                 0       33709991260PEISFI                    0                 0                 0                 0                 0                 0            9984444115     1466139GOB FEDGOBIERNO FEDERAL                         00714040062                 00         0                 0                 022          0                 0                 0                 0                 0                 0                 0                 0                 0                    10 0             0 1    10
MXIQBP0701E0        0IQ  BPAG91 240829 0  202404232024042311CBBANOR    0    1     1477515           0      109900           10166866200          1000000       15021697313                 0                 0                 0                 0                 0                 0             0                 0                 0                 0       15021697313PEISFI                    0                 0                 0                 0                 0                 0            9997816200     1690500GOB FEDGOBIERNO FEDERAL                         00715013027                 00         0                 0                 022          0                 0                 0                 0                 0                 0                 0                 0                 0                    10 0             0 1    10
MXLFGO0002L7        0LF  BONDESF271014 0  202404232024042311CB INTE    0    1     1354763           0      110000            9950075523          1000000       13479994166                 0                 0                 0                 0                 0                 0             0                 0                 0                 0       13479994166PEISFI                    0                 0                 0                 0                 0                 0            9891861623      582139GOB FEDGOBIERNO FEDERAL                         00716013124                 00         0                 0                 022          0                 0                 0                 0                 0                 0                 0                 0                 0                    10 0             0 1    10
MXISBP0401C7        0IS  BPA182 260219 0  202404232024042311BANCOME    0    1     1982728           0      110000           10203109673          1000000       20229991236                 0                 0                 0                 0                 0                 0             0                 0                 0                 0       20229991236PEISFI                    0                 0                 0                 0                 0                 0           10011129073     1919806GOB FEDGOBIERNO FEDERAL                         00717037006                 00         0                 0                 022          0                 0                 0                 0                 0                 0                 0                 0                 0                    10 0             0 1    10
